{
  "contractName": "HelloWorld",
  "abi": [
    {
      "inputs": [],
      "payable": false,
      "stateMutability": "nonpayable",
      "type": "constructor"
    },
    {
      "anonymous": false,
      "inputs": [
        {
          "indexed": false,
          "name": "_msg",
          "type": "string"
        }
      ],
      "name": "Hello",
      "type": "event"
    },
    {
      "constant": false,
      "inputs": [
        {
          "name": "_msg",
          "type": "string"
        }
      ],
      "name": "hello",
      "outputs": [],
      "payable": false,
      "stateMutability": "nonpayable",
      "type": "function"
    },
    {
      "constant": false,
      "inputs": [
        {
          "name": "_owner",
          "type": "address"
        }
      ],
      "name": "transferOwnership",
      "outputs": [
        {
          "name": "",
          "type": "address"
        }
      ],
      "payable": false,
      "stateMutability": "nonpayable",
      "type": "function"
    }
  ],
  "bytecode": "0x608060405234801561001057600080fd5b50336000806101000a81548173ffffffffffffffffffffffffffffffffffffffff021916908373ffffffffffffffffffffffffffffffffffffffff1602179055506102b1806100606000396000f30060806040526004361061004c576000357c0100000000000000000000000000000000000000000000000000000000900463ffffffff168063a777d0dc14610051578063f2fde38b1461008c575b600080fd5b34801561005d57600080fd5b5061008a60048036038101908080359060200190820180359060200191909192939192939050505061010f565b005b34801561009857600080fd5b506100cd600480360381019080803573ffffffffffffffffffffffffffffffffffffffff1690602001909291905050506101bf565b604051808273ffffffffffffffffffffffffffffffffffffffff1673ffffffffffffffffffffffffffffffffffffffff16815260200191505060405180910390f35b6000809054906101000a900473ffffffffffffffffffffffffffffffffffffffff1673ffffffffffffffffffffffffffffffffffffffff163373ffffffffffffffffffffffffffffffffffffffff1614151561016a57600080fd5b7fe762c7c6ad44bf64dd9f998228fe1bf5218e470864dcfff5544c541c5b6c649d8282604051808060200182810382528484828181526020019250808284378201915050935050505060405180910390a15050565b60008060009054906101000a900473ffffffffffffffffffffffffffffffffffffffff1673ffffffffffffffffffffffffffffffffffffffff163373ffffffffffffffffffffffffffffffffffffffff1614151561021c57600080fd5b816000806101000a81548173ffffffffffffffffffffffffffffffffffffffff021916908373ffffffffffffffffffffffffffffffffffffffff1602179055506000809054906101000a900473ffffffffffffffffffffffffffffffffffffffff1690509190505600a165627a7a72305820e721a80ac6a211e46856c763e9850871c8b3bd6c931ee920ab6a24fa0dd8e10b0029",
  "source": "pragma solidity ^0.4.24;\n\ncontract HelloWorld {\n    // track the owner\n    address internal owner;\n\n    constructor() public {\n        owner = msg.sender; //deployer of contract\n    }\n\n    modifier onlyOwner {\n        require(msg.sender == owner);\n        _;\n    }\n\n    event Hello(string _msg);\n\n    function hello (string _msg) external onlyOwner{\n        emit Hello(_msg); //note emit keyword\n    }\n\n    function transferOwnership(address _owner) external onlyOwner returns (address) {\n        owner = _owner;\n        return owner;\n    }\n}",
  "sourcePath": "/Users/jonathanlorimer/Documents/coding_files/blockchain/lhl/w2d2/helloWorld/contracts/helloWorld.sol",
  "compiler": {
    "name": "solc",
    "version": "0.4.24+commit.e67f0147.Emscripten.clang"
  },
  "schemaVersion": "2.0.1",
  "updatedAt": "2018-10-28T15:37:01.908Z"
}