{
  "contractName": "PropertyRegistry",
  "abi": [
    {
      "inputs": [
        {
          "name": "_propertyContract",
          "type": "address"
        }
      ],
      "payable": false,
      "stateMutability": "nonpayable",
      "type": "constructor"
    },
    {
      "constant": true,
      "inputs": [
        {
          "name": "_tokenId",
          "type": "uint256"
        }
      ],
      "name": "getPropertyDetails",
      "outputs": [
        {
          "name": "",
          "type": "uint256"
        },
        {
          "name": "",
          "type": "string"
        }
      ],
      "payable": false,
      "stateMutability": "view",
      "type": "function"
    },
    {
      "constant": false,
      "inputs": [
        {
          "name": "_tokenId",
          "type": "uint256"
        },
        {
          "name": "_price",
          "type": "uint256"
        },
        {
          "name": "_uri",
          "type": "string"
        }
      ],
      "name": "registerProperty",
      "outputs": [],
      "payable": false,
      "stateMutability": "nonpayable",
      "type": "function"
    },
    {
      "constant": false,
      "inputs": [
        {
          "name": "_tokenId",
          "type": "uint256"
        },
        {
          "name": "_checkIn",
          "type": "uint256"
        },
        {
          "name": "_checkOut",
          "type": "uint256"
        }
      ],
      "name": "requestStay",
      "outputs": [],
      "payable": false,
      "stateMutability": "nonpayable",
      "type": "function"
    },
    {
      "constant": false,
      "inputs": [
        {
          "name": "_tokenId",
          "type": "uint256"
        }
      ],
      "name": "approveRequest",
      "outputs": [],
      "payable": false,
      "stateMutability": "nonpayable",
      "type": "function"
    },
    {
      "constant": false,
      "inputs": [
        {
          "name": "_tokenId",
          "type": "uint256"
        }
      ],
      "name": "checkIn",
      "outputs": [],
      "payable": false,
      "stateMutability": "nonpayable",
      "type": "function"
    },
    {
      "constant": false,
      "inputs": [
        {
          "name": "_tokenId",
          "type": "uint256"
        }
      ],
      "name": "checkOut",
      "outputs": [],
      "payable": false,
      "stateMutability": "nonpayable",
      "type": "function"
    }
  ],
  "bytecode": "0x608060405234801561001057600080fd5b50604051602080610e9683398101806040528101908080519060200190929190505050806000806101000a81548173ffffffffffffffffffffffffffffffffffffffff021916908373ffffffffffffffffffffffffffffffffffffffff16021790555050610e13806100836000396000f300608060405260043610610078576000357c0100000000000000000000000000000000000000000000000000000000900463ffffffff1680630a65be671461007d578063126dbe43146100be5780631bd2eeee1461016b578063ccfc7f7214610198578063d7d1bbdb14610215578063e95a644f14610242575b600080fd5b34801561008957600080fd5b506100bc60048036038101908080359060200190929190803590602001909291908035906020019092919050505061026f565b005b3480156100ca57600080fd5b506100e9600480360381019080803590602001909291905050506103db565b6040518083815260200180602001828103825283818151815260200191508051906020019080838360005b8381101561012f578082015181840152602081019050610114565b50505050905090810190601f16801561015c5780820380516001836020036101000a031916815260200191505b50935050505060405180910390f35b34801561017757600080fd5b50610196600480360381019080803590602001909291905050506104b1565b005b3480156101a457600080fd5b506102136004803603810190808035906020019092919080359060200190929190803590602001908201803590602001908080601f01602080910402602001604051908101604052809392919081815260200183838082843782019150505050505091929192905050506105e3565b005b34801561022157600080fd5b5061024060048036038101908080359060200190929190505050610930565b005b34801561024e57600080fd5b5061026d60048036038101908080359060200190929190505050610b53565b005b82600073ffffffffffffffffffffffffffffffffffffffff166001600083815260200190815260200160002060020160009054906101000a900473ffffffffffffffffffffffffffffffffffffffff1673ffffffffffffffffffffffffffffffffffffffff1614151561034a576040517f08c379a00000000000000000000000000000000000000000000000000000000081526004018080602001828103825260178152602001807f526571756573746564206d75737420626520656d70747900000000000000000081525060200191505060405180910390fd5b336001600086815260200190815260200160002060020160006101000a81548173ffffffffffffffffffffffffffffffffffffffff021916908373ffffffffffffffffffffffffffffffffffffffff16021790555082600160008681526020019081526020016000206005018190555081600160008681526020019081526020016000206006018190555050505050565b60006060600160008481526020019081526020016000206001015460016000858152602001908152602001600020600701808054600181600116156101000203166002900480601f0160208091040260200160405190810160405280929190818152602001828054600181600116156101000203166002900480156104a15780601f10610476576101008083540402835291602001916104a1565b820191906000526020600020905b81548152906001019060200180831161048457829003601f168201915b5050505050905091509150915091565b3373ffffffffffffffffffffffffffffffffffffffff166001600083815260200190815260200160002060040160009054906101000a900473ffffffffffffffffffffffffffffffffffffffff1673ffffffffffffffffffffffffffffffffffffffff1614151561058a576040517f08c379a000000000000000000000000000000000000000000000000000000000815260040180806020018281038252601c8152602001807f4d757374206265206f63637570616e7420746f20636865636b6f75740000000081525060200191505060405180910390fd5b60006001600083815260200190815260200160002060020160006101000a81548173ffffffffffffffffffffffffffffffffffffffff021916908373ffffffffffffffffffffffffffffffffffffffff16021790555050565b823373ffffffffffffffffffffffffffffffffffffffff166000809054906101000a900473ffffffffffffffffffffffffffffffffffffffff1673ffffffffffffffffffffffffffffffffffffffff16636352211e836040518263ffffffff167c010000000000000000000000000000000000000000000000000000000002815260040180828152602001915050602060405180830381600087803b15801561068b57600080fd5b505af115801561069f573d6000803e3d6000fd5b505050506040513d60208110156106b557600080fd5b810190808051906020019092919050505073ffffffffffffffffffffffffffffffffffffffff16141515610777576040517f08c379a00000000000000000000000000000000000000000000000000000000081526004018080602001828103825260318152602001807f4e6f6e2d6f776e657220697320747279696e6720746f20616363657373206f7781526020017f6e6572206f6e6c792066756e6374696f6e00000000000000000000000000000081525060400191505060405180910390fd5b6101006040519081016040528060008152602001848152602001600073ffffffffffffffffffffffffffffffffffffffff168152602001600073ffffffffffffffffffffffffffffffffffffffff168152602001600073ffffffffffffffffffffffffffffffffffffffff16815260200160008152602001600081526020018381525060016000868152602001908152602001600020600082015181600001556020820151816001015560408201518160020160006101000a81548173ffffffffffffffffffffffffffffffffffffffff021916908373ffffffffffffffffffffffffffffffffffffffff16021790555060608201518160030160006101000a81548173ffffffffffffffffffffffffffffffffffffffff021916908373ffffffffffffffffffffffffffffffffffffffff16021790555060808201518160040160006101000a81548173ffffffffffffffffffffffffffffffffffffffff021916908373ffffffffffffffffffffffffffffffffffffffff16021790555060a0820151816005015560c0820151816006015560e0820151816007019080519060200190610926929190610d42565b5090505050505050565b803373ffffffffffffffffffffffffffffffffffffffff166000809054906101000a900473ffffffffffffffffffffffffffffffffffffffff1673ffffffffffffffffffffffffffffffffffffffff16636352211e836040518263ffffffff167c010000000000000000000000000000000000000000000000000000000002815260040180828152602001915050602060405180830381600087803b1580156109d857600080fd5b505af11580156109ec573d6000803e3d6000fd5b505050506040513d6020811015610a0257600080fd5b810190808051906020019092919050505073ffffffffffffffffffffffffffffffffffffffff16141515610ac4576040517f08c379a00000000000000000000000000000000000000000000000000000000081526004018080602001828103825260318152602001807f4e6f6e2d6f776e657220697320747279696e6720746f20616363657373206f7781526020017f6e6572206f6e6c792066756e6374696f6e00000000000000000000000000000081525060400191505060405180910390fd5b6001600083815260200190815260200160002060020160009054906101000a900473ffffffffffffffffffffffffffffffffffffffff166001600084815260200190815260200160002060030160006101000a81548173ffffffffffffffffffffffffffffffffffffffff021916908373ffffffffffffffffffffffffffffffffffffffff1602179055505050565b3373ffffffffffffffffffffffffffffffffffffffff166001600083815260200190815260200160002060030160009054906101000a900473ffffffffffffffffffffffffffffffffffffffff1673ffffffffffffffffffffffffffffffffffffffff16141515610c2c576040517f08c379a00000000000000000000000000000000000000000000000000000000081526004018080602001828103825260158152602001807f4775657374206973206e6f7420617070726f766564000000000000000000000081525060200191505060405180910390fd5b600160008281526020019081526020016000206005015442111515610cdf576040517f08c379a00000000000000000000000000000000000000000000000000000000081526004018080602001828103825260228152602001807f436865636b20696e2074696d65206d757374206265207072696f7220746f206e81526020017f6f7700000000000000000000000000000000000000000000000000000000000081525060400191505060405180910390fd5b3373ffffffffffffffffffffffffffffffffffffffff166001600083815260200190815260200160002060040160009054906101000a90505050600160008281526020019081526020016000206000016000815480929190600101919050555050565b828054600181600116156101000203166002900490600052602060002090601f016020900481019282601f10610d8357805160ff1916838001178555610db1565b82800160010185558215610db1579182015b82811115610db0578251825591602001919060010190610d95565b5b509050610dbe9190610dc2565b5090565b610de491905b80821115610de0576000816000905550600101610dc8565b5090565b905600a165627a7a72305820c5dac95025a29c9eecb0c5181f3a7e664dab60a50431c99936d302a162cd1f110029",
  "source": "pragma solidity ^0.4.24;\n\nimport \"../node_modules/zeppelin-solidity/contracts/token/ERC721/ERC721Basic.sol\";\n\ncontract PropertyRegistry {\n    \n    ERC721Basic propertyContract;\n\n    struct Data {\n        uint256 stays;\n        uint256 price;\n        address requested;\n        address approved;\n        address occupant;\n        uint256 checkIn;\n        uint256 checkOut;\n        string uri;\n    }\n\n    mapping(uint256 => Data) propertyDetails;\n\n    modifier onlyOwner(uint256 _tokenId) {\n        require(propertyContract.ownerOf(_tokenId) == msg.sender, \"Non-owner is trying to access owner only function\");\n        _;\n    }\n\n    modifier notRequested(uint256 _tokenId){\n        require(propertyDetails[_tokenId].requested == address(0), \"Requested must be empty\");\n        _;\n    }\n\n    constructor(address _propertyContract) public {\n        propertyContract = ERC721Basic(_propertyContract);\n    }\n\n    function getPropertyDetails(uint256 _tokenId) public view returns (uint256, string){\n        return (\n            propertyDetails[_tokenId].price,\n            propertyDetails[_tokenId].uri\n        );\n    }\n\n    function registerProperty(uint256 _tokenId, uint256 _price, string _uri) public onlyOwner(_tokenId){\n        propertyDetails[_tokenId] = Data(0, _price, address(0), address(0), address(0), 0, 0, _uri);\n    }\n\n    function requestStay(uint256 _tokenId, uint256 _checkIn, uint256 _checkOut) public notRequested(_tokenId){\n        propertyDetails[_tokenId].requested = msg.sender;\n        propertyDetails[_tokenId].checkIn = _checkIn;\n        propertyDetails[_tokenId].checkOut = _checkOut;\n    }\n\n    function approveRequest(uint256 _tokenId) public onlyOwner(_tokenId) {\n        propertyDetails[_tokenId].approved = propertyDetails[_tokenId].requested;\n    }\n\n    function checkIn(uint256 _tokenId) public {\n        require(propertyDetails[_tokenId].approved == msg.sender, \"Guest is not approved\");\n        require(now > propertyDetails[_tokenId].checkIn, \"Check in time must be prior to now\");\n\n        propertyDetails[_tokenId].occupant == msg.sender;\n        propertyDetails[_tokenId].stays++;\n    }\n\n    function checkOut(uint _tokenId) public {\n        require(propertyDetails[_tokenId].occupant == msg.sender, \"Must be occupant to checkout\");\n        propertyDetails[_tokenId].requested = address(0);\n    }\n}",
  "sourcePath": "/Users/jonathanlorimer/Documents/coding_files/blockchain/lhl/bnb/contracts/PropertyRegistry.sol",
  "compiler": {
    "name": "solc",
    "version": "0.4.24+commit.e67f0147.Emscripten.clang"
  },
  "schemaVersion": "2.0.1",
  "updatedAt": "2018-11-17T20:17:11.558Z"
}